{
  "_format": "hh-sol-artifact-1",
  "contractName": "MemoryRegistryV2",
  "sourceName": "contracts/MemoryRegistryV2.sol",
  "abi": [
    {
      "inputs": [],
      "name": "InvalidInitialization",
      "type": "error"
    },
    {
      "inputs": [],
      "name": "NotInitializing",
      "type": "error"
    },
    {
      "inputs": [
        {
          "internalType": "address",
          "name": "owner",
          "type": "address"
        }
      ],
      "name": "OwnableInvalidOwner",
      "type": "error"
    },
    {
      "inputs": [
        {
          "internalType": "address",
          "name": "account",
          "type": "address"
        }
      ],
      "name": "OwnableUnauthorizedAccount",
      "type": "error"
    },
    {
      "anonymous": false,
      "inputs": [
        {
          "indexed": false,
          "internalType": "uint64",
          "name": "version",
          "type": "uint64"
        }
      ],
      "name": "Initialized",
      "type": "event"
    },
    {
      "anonymous": false,
      "inputs": [
        {
          "indexed": true,
          "internalType": "address",
          "name": "sender",
          "type": "address"
        },
        {
          "indexed": true,
          "internalType": "uint256",
          "name": "id",
          "type": "uint256"
        },
        {
          "indexed": false,
          "internalType": "string",
          "name": "data",
          "type": "string"
        }
      ],
      "name": "MemoryStored",
      "type": "event"
    },
    {
      "anonymous": false,
      "inputs": [
        {
          "indexed": true,
          "internalType": "address",
          "name": "previousOwner",
          "type": "address"
        },
        {
          "indexed": true,
          "internalType": "address",
          "name": "newOwner",
          "type": "address"
        }
      ],
      "name": "OwnershipTransferred",
      "type": "event"
    },
    {
      "inputs": [
        {
          "internalType": "string",
          "name": "name",
          "type": "string"
        }
      ],
      "name": "initialize",
      "outputs": [],
      "stateMutability": "nonpayable",
      "type": "function"
    },
    {
      "inputs": [],
      "name": "owner",
      "outputs": [
        {
          "internalType": "address",
          "name": "",
          "type": "address"
        }
      ],
      "stateMutability": "view",
      "type": "function"
    },
    {
      "inputs": [],
      "name": "registryName",
      "outputs": [
        {
          "internalType": "string",
          "name": "",
          "type": "string"
        }
      ],
      "stateMutability": "view",
      "type": "function"
    },
    {
      "inputs": [],
      "name": "renounceOwnership",
      "outputs": [],
      "stateMutability": "nonpayable",
      "type": "function"
    },
    {
      "inputs": [
        {
          "internalType": "string",
          "name": "name",
          "type": "string"
        }
      ],
      "name": "setName",
      "outputs": [],
      "stateMutability": "nonpayable",
      "type": "function"
    },
    {
      "inputs": [
        {
          "internalType": "uint256",
          "name": "id",
          "type": "uint256"
        },
        {
          "internalType": "string",
          "name": "data",
          "type": "string"
        }
      ],
      "name": "storeMemory",
      "outputs": [],
      "stateMutability": "nonpayable",
      "type": "function"
    },
    {
      "inputs": [
        {
          "internalType": "address",
          "name": "newOwner",
          "type": "address"
        }
      ],
      "name": "transferOwnership",
      "outputs": [],
      "stateMutability": "nonpayable",
      "type": "function"
    }
  ],
  "bytecode": "0x608060405234801561001057600080fd5b50610945806100206000396000f3fe608060405234801561001057600080fd5b506004361061007d5760003560e01c80638da5cb5b1161005b5780638da5cb5b146100bd578063c47f0027146100f7578063f2fde38b1461010a578063f62d18881461011d57600080fd5b80631654d169146100825780636928f4d7146100a0578063715018a6146100b5575b600080fd5b61008a610130565b60405161009791906104c3565b60405180910390f35b6100b36100ae36600461055a565b6101be565b005b6100b3610207565b7f9016d09d72d40fdae2fd8ceac6b6234c7706214fd39c1cd1e609a0528c199300546040516001600160a01b039091168152602001610097565b6100b36101053660046105a6565b61021b565b6100b36101183660046105e8565b610235565b6100b361012b36600461062e565b610278565b6000805461013d906106df565b80601f0160208091040260200160405190810160405280929190818152602001828054610169906106df565b80156101b65780601f1061018b576101008083540402835291602001916101b6565b820191906000526020600020905b81548152906001019060200180831161019957829003601f168201915b505050505081565b82336001600160a01b03167f56812fc742a9cd7530f984bbaa6408e4e5cf3f25a95dd9f3cdd74bb9be79221a84846040516101fa929190610719565b60405180910390a3505050565b61020f610395565b61021960006103f0565b565b610223610395565b600061023082848361078e565b505050565b61023d610395565b6001600160a01b03811661026c57604051631e4fbdf760e01b8152600060048201526024015b60405180910390fd5b610275816103f0565b50565b7ff0c57e16840df040f15088dc2f81fe391c3923bec73e23a9662efc9c229c6a008054600160401b810460ff16159067ffffffffffffffff166000811580156102be5750825b905060008267ffffffffffffffff1660011480156102db5750303b155b9050811580156102e9575080155b156103075760405163f92ee8a960e01b815260040160405180910390fd5b845467ffffffffffffffff19166001178555831561033157845460ff60401b1916600160401b1785555b61033a33610461565b6000610346878261084f565b50831561038d57845460ff60401b19168555604051600181527fc7f505b2f371ae2175ee4913f4499e1f2633a7b5936321eed1cdaeb6115181d29060200160405180910390a15b505050505050565b336103c77f9016d09d72d40fdae2fd8ceac6b6234c7706214fd39c1cd1e609a0528c199300546001600160a01b031690565b6001600160a01b0316146102195760405163118cdaa760e01b8152336004820152602401610263565b7f9016d09d72d40fdae2fd8ceac6b6234c7706214fd39c1cd1e609a0528c19930080546001600160a01b031981166001600160a01b03848116918217845560405192169182907f8be0079c531659141344cd1fd0a4f28419497f9722a3daafe3b4186f6b6457e090600090a3505050565b610469610472565b610275816104bb565b7ff0c57e16840df040f15088dc2f81fe391c3923bec73e23a9662efc9c229c6a0054600160401b900460ff1661021957604051631afcd79f60e31b815260040160405180910390fd5b61023d610472565b600060208083528351808285015260005b818110156104f0578581018301518582016040015282016104d4565b506000604082860101526040601f19601f8301168501019250505092915050565b60008083601f84011261052357600080fd5b50813567ffffffffffffffff81111561053b57600080fd5b60208301915083602082850101111561055357600080fd5b9250929050565b60008060006040848603121561056f57600080fd5b83359250602084013567ffffffffffffffff81111561058d57600080fd5b61059986828701610511565b9497909650939450505050565b600080602083850312156105b957600080fd5b823567ffffffffffffffff8111156105d057600080fd5b6105dc85828601610511565b90969095509350505050565b6000602082840312156105fa57600080fd5b81356001600160a01b038116811461061157600080fd5b9392505050565b634e487b7160e01b600052604160045260246000fd5b60006020828403121561064057600080fd5b813567ffffffffffffffff8082111561065857600080fd5b818401915084601f83011261066c57600080fd5b81358181111561067e5761067e610618565b604051601f8201601f19908116603f011681019083821181831017156106a6576106a6610618565b816040528281528760208487010111156106bf57600080fd5b826020860160208301376000928101602001929092525095945050505050565b600181811c908216806106f357607f821691505b60208210810361071357634e487b7160e01b600052602260045260246000fd5b50919050565b60208152816020820152818360408301376000818301604090810191909152601f909201601f19160101919050565b601f82111561023057600081815260208120601f850160051c8101602086101561076f5750805b601f850160051c820191505b8181101561038d5782815560010161077b565b67ffffffffffffffff8311156107a6576107a6610618565b6107ba836107b483546106df565b83610748565b6000601f8411600181146107ee57600085156107d65750838201355b600019600387901b1c1916600186901b178355610848565b600083815260209020601f19861690835b8281101561081f57868501358255602094850194600190920191016107ff565b508682101561083c5760001960f88860031b161c19848701351681555b505060018560011b0183555b5050505050565b815167ffffffffffffffff81111561086957610869610618565b61087d8161087784546106df565b84610748565b602080601f8311600181146108b2576000841561089a5750858301515b600019600386901b1c1916600185901b17855561038d565b600085815260208120601f198616915b828110156108e1578886015182559484019460019091019084016108c2565b50858210156108ff5787850151600019600388901b60f8161c191681555b5050505050600190811b0190555056fea2646970667358221220e196002a5ecdd737df49f593dd1dea9d4f1adc27ad97460f73a8e8cf68d4423364736f6c63430008140033",
  "linkReferences": {},
  "deployedLinkReferences": {}
}